{
  "contractName": "HelloWorld",
  "abi": [
    {
      "inputs": [],
      "payable": false,
      "stateMutability": "nonpayable",
      "type": "constructor"
    },
    {
      "constant": true,
      "inputs": [],
      "name": "getDumbValue",
      "outputs": [
        {
          "internalType": "string",
          "name": "",
          "type": "string"
        }
      ],
      "payable": false,
      "stateMutability": "view",
      "type": "function"
    },
    {
      "constant": true,
      "inputs": [],
      "name": "getHello",
      "outputs": [
        {
          "internalType": "string",
          "name": "",
          "type": "string"
        }
      ],
      "payable": false,
      "stateMutability": "view",
      "type": "function"
    },
    {
      "constant": false,
      "inputs": [
        {
          "internalType": "string",
          "name": "newValue",
          "type": "string"
        }
      ],
      "name": "setDumbValue",
      "outputs": [],
      "payable": false,
      "stateMutability": "nonpayable",
      "type": "function"
    }
  ],
  "bytecode": "0x60806040526040518060400160405280600c81526020017f48656c6c6f2050696572726500000000000000000000000000000000000000008152506001908051906020019061004f9291906100ae565b5034801561005c57600080fd5b506040518060400160405280600781526020017f44656661756c7400000000000000000000000000000000000000000000000000815250600090805190602001906100a89291906100ae565b50610153565b828054600181600116156101000203166002900490600052602060002090601f016020900481019282601f106100ef57805160ff191683800117855561011d565b8280016001018555821561011d579182015b8281111561011c578251825591602001919060010190610101565b5b50905061012a919061012e565b5090565b61015091905b8082111561014c576000816000905550600101610134565b5090565b90565b61043f806101626000396000f3fe608060405234801561001057600080fd5b50600436106100415760003560e01c80632e83ee8e146100465780638da9b772146100c95780638f6f39e41461014c575b600080fd5b61004e610207565b6040518080602001828103825283818151815260200191508051906020019080838360005b8381101561008e578082015181840152602081019050610073565b50505050905090810190601f1680156100bb5780820380516001836020036101000a031916815260200191505b509250505060405180910390f35b6100d16102a9565b6040518080602001828103825283818151815260200191508051906020019080838360005b838110156101115780820151818401526020810190506100f6565b50505050905090810190601f16801561013e5780820380516001836020036101000a031916815260200191505b509250505060405180910390f35b6102056004803603602081101561016257600080fd5b810190808035906020019064010000000081111561017f57600080fd5b82018360208201111561019157600080fd5b803590602001918460018302840111640100000000831117156101b357600080fd5b91908080601f016020809104026020016040519081016040528093929190818152602001838380828437600081840152601f19601f82011690508083019250505050505050919291929050505061034b565b005b606060008054600181600116156101000203166002900480601f01602080910402602001604051908101604052809291908181526020018280546001816001161561010002031660029004801561029f5780601f106102745761010080835404028352916020019161029f565b820191906000526020600020905b81548152906001019060200180831161028257829003601f168201915b5050505050905090565b606060018054600181600116156101000203166002900480601f0160208091040260200160405190810160405280929190818152602001828054600181600116156101000203166002900480156103415780601f1061031657610100808354040283529160200191610341565b820191906000526020600020905b81548152906001019060200180831161032457829003601f168201915b5050505050905090565b8060009080519060200190610361929190610365565b5050565b828054600181600116156101000203166002900490600052602060002090601f016020900481019282601f106103a657805160ff19168380011785556103d4565b828001600101855582156103d4579182015b828111156103d35782518255916020019190600101906103b8565b5b5090506103e191906103e5565b5090565b61040791905b808211156104035760008160009055506001016103eb565b5090565b9056fea265627a7a72315820b255cd25763fa3cfc5e3ee0444bfcb70f589f4918f6a4e2a30dee5d4a26efc0a64736f6c63430005100032",
  "source": "pragma solidity ^0.5.0;\n\n\ncontract HelloWorld {\n    string private dumbValue;\n\n    string private hello = \"Hello Pierre\";\n\n    constructor() public {\n        dumbValue = \"Default\";\n    }\n\n    function getDumbValue() public view returns (string memory) {\n        return dumbValue;\n    }\n\n    function getHello() public view returns (string memory) {\n      return hello;\n    }\n\n    function setDumbValue(string memory newValue) public {\n        dumbValue = newValue;\n    }\n}\n",
  "sourcePath": "/home/paf/Documents/open/stagez/opentoken-contracts/contracts/HelloWorld.sol",
  "compiler": {
    "name": "solc",
    "version": "0.5.16+commit.9c3226ce.Emscripten.clang"
  },
  "schemaVersion": "3.0.23",
  "updatedAt": "2020-03-23T16:35:47.780Z",
  "networkType": "ethereum",
  "devdoc": {
    "methods": {}
  },
  "userdoc": {
    "methods": {}
  }
}